{
  "contractName": "SimpleInterestTermsContract",
  "abi": [
    {
      "constant": true,
      "inputs": [
        {
          "name": "parameters",
          "type": "bytes32"
        }
      ],
      "name": "unpackParameters",
      "outputs": [
        {
          "name": "_principalPlusInterest",
          "type": "uint128"
        },
        {
          "name": "_amortizationUnitType",
          "type": "uint8"
        },
        {
          "name": "_termLengthInAmortizationUnits",
          "type": "uint120"
        }
      ],
      "payable": false,
      "stateMutability": "pure",
      "type": "function"
    },
    {
      "constant": true,
      "inputs": [],
      "name": "HOUR_BLOCK_LENGTH",
      "outputs": [
        {
          "name": "",
          "type": "uint256"
        }
      ],
      "payable": false,
      "stateMutability": "view",
      "type": "function"
    },
    {
      "constant": true,
      "inputs": [
        {
          "name": "amortizationUnitType",
          "type": "uint8"
        }
      ],
      "name": "getAmortizationUnitLengthInBlocks",
      "outputs": [
        {
          "name": "_amortizationUnitLengthInBlocks",
          "type": "uint256"
        }
      ],
      "payable": false,
      "stateMutability": "pure",
      "type": "function"
    },
    {
      "constant": false,
      "inputs": [
        {
          "name": "agreementId",
          "type": "bytes32"
        },
        {
          "name": "payer",
          "type": "address"
        },
        {
          "name": "beneficiary",
          "type": "address"
        },
        {
          "name": "unitsOfRepayment",
          "type": "uint256"
        },
        {
          "name": "tokenAddress",
          "type": "address"
        }
      ],
      "name": "registerRepayment",
      "outputs": [
        {
          "name": "_success",
          "type": "bool"
        }
      ],
      "payable": false,
      "stateMutability": "nonpayable",
      "type": "function"
    },
    {
      "constant": true,
      "inputs": [
        {
          "name": "agreementId",
          "type": "bytes32"
        },
        {
          "name": "blockNumber",
          "type": "uint256"
        }
      ],
      "name": "getExpectedRepaymentValue",
      "outputs": [
        {
          "name": "_expectedRepaymentValue",
          "type": "uint256"
        }
      ],
      "payable": false,
      "stateMutability": "view",
      "type": "function"
    },
    {
      "constant": true,
      "inputs": [],
      "name": "MONTH_BLOCK_LENGTH",
      "outputs": [
        {
          "name": "",
          "type": "uint256"
        }
      ],
      "payable": false,
      "stateMutability": "view",
      "type": "function"
    },
    {
      "constant": true,
      "inputs": [],
      "name": "YEAR_BLOCK_LENGTH",
      "outputs": [
        {
          "name": "",
          "type": "uint256"
        }
      ],
      "payable": false,
      "stateMutability": "view",
      "type": "function"
    },
    {
      "constant": true,
      "inputs": [],
      "name": "DAY_BLOCK_LENGTH",
      "outputs": [
        {
          "name": "",
          "type": "uint256"
        }
      ],
      "payable": false,
      "stateMutability": "view",
      "type": "function"
    },
    {
      "constant": true,
      "inputs": [],
      "name": "WEEK_BLOCK_LENGTH",
      "outputs": [
        {
          "name": "",
          "type": "uint256"
        }
      ],
      "payable": false,
      "stateMutability": "view",
      "type": "function"
    },
    {
      "constant": true,
      "inputs": [
        {
          "name": "agreementId",
          "type": "bytes32"
        },
        {
          "name": "blockNumber",
          "type": "uint256"
        }
      ],
      "name": "getValueRepaid",
      "outputs": [
        {
          "name": "_valueRepaid",
          "type": "uint256"
        }
      ],
      "payable": false,
      "stateMutability": "view",
      "type": "function"
    },
    {
      "inputs": [
        {
          "name": "_debtRegistry",
          "type": "address"
        },
        {
          "name": "_repaymentToken",
          "type": "address"
        },
        {
          "name": "_repaymentRouter",
          "type": "address"
        }
      ],
      "payable": false,
      "stateMutability": "nonpayable",
      "type": "constructor"
    }
  ],
  "bytecode": "0x6060604052341561000f57600080fd5b6040516060806109ef8339810160405280805190602001909190805190602001909190805190602001909190505082600160006101000a81548173ffffffffffffffffffffffffffffffffffffffff021916908373ffffffffffffffffffffffffffffffffffffffff16021790555081600260006101000a81548173ffffffffffffffffffffffffffffffffffffffff021916908373ffffffffffffffffffffffffffffffffffffffff16021790555080600360006101000a81548173ffffffffffffffffffffffffffffffffffffffff021916908373ffffffffffffffffffffffffffffffffffffffff1602179055505050506108dd806101126000396000f3006060604052600436106100a4576000357c0100000000000000000000000000000000000000000000000000000000900463ffffffff168063113d81c0146100a9578063175458111461013e5780632cfd6f9c146101675780635f0280ba146101a157806399114d8414610246578063a70e19051461028a578063df25db13146102b3578063e51b1808146102dc578063ed3caa1914610305578063f03a423c1461032e575b600080fd5b34156100b457600080fd5b6100ce600480803560001916906020019091905050610372565b60405180846fffffffffffffffffffffffffffffffff166fffffffffffffffffffffffffffffffff1681526020018360ff1660ff168152602001826effffffffffffffffffffffffffffff166effffffffffffffffffffffffffffff168152602001935050505060405180910390f35b341561014957600080fd5b6101516103e9565b6040518082815260200191505060405180910390f35b341561017257600080fd5b61018b600480803560ff169060200190919050506103ef565b6040518082815260200191505060405180910390f35b34156101ac57600080fd5b61022c60048080356000191690602001909190803573ffffffffffffffffffffffffffffffffffffffff1690602001909190803573ffffffffffffffffffffffffffffffffffffffff1690602001909190803590602001909190803573ffffffffffffffffffffffffffffffffffffffff169060200190919050506104ab565b604051808215151515815260200191505060405180910390f35b341561025157600080fd5b6102746004808035600019169060200190919080359060200190919050506105c5565b6040518082815260200191505060405180910390f35b341561029557600080fd5b61029d6107e5565b6040518082815260200191505060405180910390f35b34156102be57600080fd5b6102c66107ec565b6040518082815260200191505060405180910390f35b34156102e757600080fd5b6102ef6107f3565b6040518082815260200191505060405180910390f35b341561031057600080fd5b6103186107f9565b6040518082815260200191505060405180910390f35b341561033957600080fd5b61035c6004808035600019169060200190919080359060200190919050506107ff565b6040518082815260200191505060405180910390f35b600080600080600080600435925060143591506015359050827001000000000000000000000000000000009004827f01000000000000000000000000000000000000000000000000000000000000009004827101000000000000000000000000000000000090049550955095505050509193909250565b61010181565b60008060048111156103fd57fe5b60ff168260ff1614156104145761010190506104a6565b6001600481111561042157fe5b60ff168260ff1614156104385761181b90506104a6565b6002600481111561044557fe5b60ff168260ff16141561045c5761a8c090506104a6565b6003600481111561046957fe5b60ff168260ff161415610481576202d33690506104a6565b60048081111561048d57fe5b60ff168260ff1614156104a5576202d33690506104a6565b5b919050565b6000600360009054906101000a900473ffffffffffffffffffffffffffffffffffffffff1673ffffffffffffffffffffffffffffffffffffffff163373ffffffffffffffffffffffffffffffffffffffff1614151561050d57600090506105bc565b600260009054906101000a900473ffffffffffffffffffffffffffffffffffffffff1673ffffffffffffffffffffffffffffffffffffffff168273ffffffffffffffffffffffffffffffffffffffff1614156105b7576105908360008089600019166000191681526020019081526020016000205461082490919063ffffffff16565b600080886000191660001916815260200190815260200160002081905550600190506105bc565b600090505b95945050505050565b600080600080600080600080600160009054906101000a900473ffffffffffffffffffffffffffffffffffffffff1673ffffffffffffffffffffffffffffffffffffffff1663314a522e8b6000604051602001526040518263ffffffff167c0100000000000000000000000000000000000000000000000000000000028152600401808260001916600019168152602001915050602060405180830381600087803b151561067257600080fd5b6102c65a03f1151561068357600080fd5b505050604051805190509650600160009054906101000a900473ffffffffffffffffffffffffffffffffffffffff1673ffffffffffffffffffffffffffffffffffffffff1663703427858b6000604051602001526040518263ffffffff167c0100000000000000000000000000000000000000000000000000000000028152600401808260001916600019168152602001915050602060405180830381600087803b151561073057600080fd5b6102c65a03f1151561074157600080fd5b50505060405180519050955061075687610372565b945094509450610765846103ef565b915061078c8261077e888c61084290919063ffffffff16565b61085b90919063ffffffff16565b90506107d6836effffffffffffffffffffffffffffff166107c8876fffffffffffffffffffffffffffffffff168461087690919063ffffffff16565b61085b90919063ffffffff16565b97505050505050505092915050565b6202d33681565b6202d33681565b61181b81565b61a8c081565b6000806000846000191660001916815260200190815260200160002054905092915050565b600080828401905083811015151561083857fe5b8091505092915050565b600082821115151561085057fe5b818303905092915050565b600080828481151561086957fe5b0490508091505092915050565b600080600084141561088b57600091506108aa565b828402905082848281151561089c57fe5b041415156108a657fe5b8091505b50929150505600a165627a7a72305820fdc3d2a25355b88660b5558c375e6133e72f68a753ecf1f281a4beedcdad87880029",
  "source": "/*\n\n  Copyright 2017 Dharma Labs Inc.\n\n  Licensed under the Apache License, Version 2.0 (the \"License\");\n  you may not use this file except in compliance with the License.\n  You may obtain a copy of the License at\n\n    http://www.apache.org/licenses/LICENSE-2.0\n\n  Unless required by applicable law or agreed to in writing, software\n  distributed under the License is distributed on an \"AS IS\" BASIS,\n  WITHOUT WARRANTIES OR CONDITIONS OF ANY KIND, either express or implied.\n  See the License for the specific language governing permissions and\n  limitations under the License.\n\n*/\n\npragma solidity 0.4.18;\n\nimport \"zeppelin-solidity/contracts/math/SafeMath.sol\";\nimport \"../DebtRegistry.sol\";\n\n\ncontract SimpleInterestTermsContract {\n    using SafeMath for uint;\n\n    enum AmortizationUnitType { HOURS, DAYS, WEEKS, MONTHS, YEARS }\n\n    uint public constant HOUR_BLOCK_LENGTH = 257;\n    uint public constant DAY_BLOCK_LENGTH = 6171;\n    uint public constant WEEK_BLOCK_LENGTH = 43200;\n    uint public constant MONTH_BLOCK_LENGTH = 185142;\n    uint public constant YEAR_BLOCK_LENGTH = 185142;\n\n    mapping (bytes32 => uint) valueRepaid;\n\n    DebtRegistry debtRegistry;\n\n    address repaymentToken;\n    address repaymentRouter;\n\n    function SimpleInterestTermsContract(\n        address _debtRegistry,\n        address _repaymentToken,\n        address _repaymentRouter\n    )\n        public\n    {\n        debtRegistry = DebtRegistry(_debtRegistry);\n\n        repaymentToken = _repaymentToken;\n        repaymentRouter = _repaymentRouter;\n    }\n\n     /// When called, the registerRepayment function records the debtor's\n     ///  repayment, as well as any auxiliary metadata needed by the contract\n     ///  to determine ex post facto the value repaid (e.g. current USD\n     ///  exchange rate)\n     /// @param  agreementId bytes32. The agreement id (issuance hash) of the debt agreement to which this pertains.\n     /// @param  payer address. The address of the payer.\n     /// @param  beneficiary address. The address of the payment's beneficiary.\n     /// @param  unitsOfRepayment uint. The units-of-value repaid in the transaction.\n     /// @param  tokenAddress address. The address of the token with which the repayment transaction was executed.\n    function registerRepayment(\n        bytes32 agreementId,\n        address payer,\n        address beneficiary,\n        uint256 unitsOfRepayment,\n        address tokenAddress\n    )\n        public\n        returns (bool _success)\n    {\n        if (msg.sender != repaymentRouter) {\n            return false;\n        }\n\n        if (tokenAddress == repaymentToken) {\n            valueRepaid[agreementId] = valueRepaid[agreementId].add(unitsOfRepayment);\n            return true;\n        }\n\n        return false;\n    }\n\n     /// Returns the cumulative units-of-value expected to be repaid by any given blockNumber.\n     ///  Note this is not a constant function -- this value can vary on basis of any number of\n     ///  conditions (e.g. interest rates can be renegotiated if repayments are delinquent).\n     /// @param  agreementId bytes32. The agreement id (issuance hash) of the debt agreement to which this pertains.\n     /// @param  blockNumber uint. The block number for which repayment expectation is being queried.\n     /// @return uint256 The cumulative units-of-value expected to be repaid by the time the given blockNumber lapses.\n    function getExpectedRepaymentValue(\n        bytes32 agreementId,\n        uint256 blockNumber\n    )\n        public\n        view\n        returns (uint _expectedRepaymentValue)\n    {\n        bytes32 parameters = debtRegistry.getTermsContractParameters(agreementId);\n        uint issuanceBlockNumber = debtRegistry.getIssuanceBlockNumber(agreementId);\n\n        var (principalPlusInterest, amortizationUnitType, termLengthInAmortizationUnits) =\n            unpackParameters(parameters);\n\n        uint amortizationUnitLength = getAmortizationUnitLengthInBlocks(amortizationUnitType);\n        uint numRepaymentPeriods = blockNumber.sub(issuanceBlockNumber).div(amortizationUnitLength);\n\n        return numRepaymentPeriods.mul(principalPlusInterest).div(termLengthInAmortizationUnits);\n    }\n\n     /// Returns the cumulative units-of-value repaid by the point at which a given blockNumber has lapsed.\n     /// @param  agreementId bytes32. The agreement id (issuance hash) of the debt agreement to which this pertains.\n     /// @param blockNumber uint. The block number for which repayment value is being queried.\n     /// @return uint256 The cumulative units-of-value repaid by the time the given blockNumber lapsed.\n    function getValueRepaid(\n        bytes32 agreementId,\n        uint256 blockNumber\n    )\n        public\n        view\n        returns (uint _valueRepaid)\n    {\n        return valueRepaid[agreementId];\n    }\n\n    function unpackParameters(bytes32 parameters)\n        public\n        pure\n        returns (\n            uint128 _principalPlusInterest,\n            uint8 _amortizationUnitType,\n            uint120 _termLengthInAmortizationUnits\n        )\n    {\n        bytes16 principalPlusInterest;\n        bytes1 amortizationUnitType;\n        bytes15 termLengthInAmortizationUnits;\n\n        assembly {\n            principalPlusInterest := calldataload(4)\n            amortizationUnitType := calldataload(20)\n            termLengthInAmortizationUnits := calldataload(21)\n        }\n\n        return (\n            uint128(principalPlusInterest),\n            uint8(amortizationUnitType),\n            uint120(termLengthInAmortizationUnits)\n        );\n    }\n\n    function getAmortizationUnitLengthInBlocks(uint8 amortizationUnitType)\n        public\n        pure\n        returns (uint _amortizationUnitLengthInBlocks)\n    {\n        if (amortizationUnitType == uint8(AmortizationUnitType.HOURS)) {\n            return HOUR_BLOCK_LENGTH;\n        } else if (amortizationUnitType == uint8(AmortizationUnitType.DAYS)) {\n            return DAY_BLOCK_LENGTH;\n        } else if (amortizationUnitType == uint8(AmortizationUnitType.WEEKS)) {\n            return WEEK_BLOCK_LENGTH;\n        } else if (amortizationUnitType == uint8(AmortizationUnitType.MONTHS)) {\n            return MONTH_BLOCK_LENGTH;\n        } else if (amortizationUnitType == uint8(AmortizationUnitType.YEARS)) {\n            return YEAR_BLOCK_LENGTH;\n        }\n    }\n}\n",
  "sourcePath": "/Users/nadavhollander/Documents/Dharma/Development/dharma.js/node_modules/charta/contracts/examples/SimpleInterestTermsContract.sol",
  "compiler": {
    "name": "solc",
    "version": "0.4.18+commit.9cf6e910.Emscripten.clang"
  },
  "schemaVersion": "1.0.1",
  "updatedAt": "2018-02-09T00:23:41.487Z"
}