{
  "contractName": "TermsContractRegistry",
  "abi": [
    {
      "constant": false,
      "inputs": [
        {
          "name": "symbol",
          "type": "string"
        },
        {
          "name": "termsContract",
          "type": "address"
        }
      ],
      "name": "setSimpleInterestTermsContractAddress",
      "outputs": [],
      "payable": false,
      "stateMutability": "nonpayable",
      "type": "function"
    },
    {
      "constant": true,
      "inputs": [
        {
          "name": "",
          "type": "bytes32"
        }
      ],
      "name": "symbolToTermsContractAddress",
      "outputs": [
        {
          "name": "",
          "type": "address"
        }
      ],
      "payable": false,
      "stateMutability": "view",
      "type": "function"
    },
    {
      "constant": true,
      "inputs": [
        {
          "name": "symbol",
          "type": "string"
        }
      ],
      "name": "getSimpleInterestTermsContractAddress",
      "outputs": [
        {
          "name": "",
          "type": "address"
        }
      ],
      "payable": false,
      "stateMutability": "view",
      "type": "function"
    }
  ],
  "bytecode": "0x6060604052341561000f57600080fd5b6103f08061001e6000396000f300606060405260043610610057576000357c0100000000000000000000000000000000000000000000000000000000900463ffffffff16806335329b1b1461005c5780639ef3daf6146100d8578063d3e5cd921461013f575b600080fd5b341561006757600080fd5b6100d6600480803590602001908201803590602001908080601f0160208091040260200160405190810160405280939291908181526020018383808284378201915050505050509190803573ffffffffffffffffffffffffffffffffffffffff169060200190919050506101dc565b005b34156100e357600080fd5b6100fd6004808035600019169060200190919050506102c3565b604051808273ffffffffffffffffffffffffffffffffffffffff1673ffffffffffffffffffffffffffffffffffffffff16815260200191505060405180910390f35b341561014a57600080fd5b61019a600480803590602001908201803590602001908080601f016020809104026020016040519081016040528093929190818152602001838380828437820191505050505050919050506102f6565b604051808273ffffffffffffffffffffffffffffffffffffffff1673ffffffffffffffffffffffffffffffffffffffff16815260200191505060405180910390f35b80600080846040518082805190602001908083835b60208310151561021657805182526020820191506020810190506020830392506101f1565b6001836020036101000a038019825116818451168082178552505050505050905001807f53696d706c65496e7465726573745465726d73436f6e74726163740000000000815250601b0191505060405180910390206000191660001916815260200190815260200160002060006101000a81548173ffffffffffffffffffffffffffffffffffffffff021916908373ffffffffffffffffffffffffffffffffffffffff1602179055505050565b60006020528060005260406000206000915054906101000a900473ffffffffffffffffffffffffffffffffffffffff1681565b6000806000836040518082805190602001908083835b602083101515610331578051825260208201915060208101905060208303925061030c565b6001836020036101000a038019825116818451168082178552505050505050905001807f53696d706c65496e7465726573745465726d73436f6e74726163740000000000815250601b0191505060405180910390206000191660001916815260200190815260200160002060009054906101000a900473ffffffffffffffffffffffffffffffffffffffff1690509190505600a165627a7a72305820fddfe50d8104960046a2c72d9327acbb9c82ad150c9054b6bfb754011820ff190029",
  "source": "pragma solidity 0.4.18;\n\n\ncontract TermsContractRegistry {\n    mapping (bytes32 => address) public symbolToTermsContractAddress;\n\n    function setSimpleInterestTermsContractAddress(string symbol, address termsContract) public {\n        symbolToTermsContractAddress[keccak256(\n            symbol,\n            \"SimpleInterestTermsContract\"\n        )] = termsContract;\n    }\n\n    function getSimpleInterestTermsContractAddress(string symbol) public view returns (address) {\n        return symbolToTermsContractAddress[keccak256(\n            symbol,\n            \"SimpleInterestTermsContract\"\n        )];\n    }\n}\n",
  "sourcePath": "/Users/nadavhollander/Documents/Dharma/Development/charta/contracts/examples/TermsContractRegistry.sol",
  "compiler": {
    "name": "solc",
    "version": "0.4.18+commit.9cf6e910.Emscripten.clang"
  },
  "schemaVersion": "1.0.1",
  "updatedAt": "2018-02-06T04:59:25.195Z"
}